:1000000000800020BD010000956800004D680000E0
:100010004D6800004D6800004D6800004D6800000C
:100020004D6800004D6800004D68000095680000B4
:10003000956800004D680000518000005581000067
:1000400095680000956800009568000095680000BC
:1000500095680000956800009568000095680000AC
:10006000956800009568000095680000956800009C
:10007000956800009568000095680000956800008C
:10008000956800009568000095680000956800007C
:10009000956800009568000095680000956800006C
:1000A000956800009568000095680000956800005C
:1000B000956800009568000095680000956800004C
:1000C000956800009568000095680000956800003C
:1000D000956800009568000095680000956800002C
:1000E000956800009568000095680000956800001C
:1000F00095680000A96D0000956800005186000019
:10010000956800007D8700009568000095680000F4
:1001100095680000956800009568000095680000EB
:1001200095680000956800009568000095680000DB
:1001300095680000956800009568000095680000CB
:1001400095680000956800009568000095680000BB
:1001500095680000956800009568000095680000AB
:10016000956800006D7000009568000095680000BB
:10017000956800009568000095680000956800008B
:10018000956800009568000095680000956800007B
:10019000956800009568000095680000956800006B
:1001A000956800009568000095680000956800005B
:1001B000956800009568000095680000564B4CF269
:1001C000205210B51A804DF628121A8000BF00BFC9
:1001D00006F064FB514B4FF010621A60504A9A606F
:1001E000504ADA60504A136813F4807304D14F49BF
:1001F0000B604FF4A85313604D4B1A78110703D5C9
:100200001A7842F008021A704A4B4B492A221A7097
:100210004A4A4B4B8B4204D252F8040F43F8040B6A
:10022000F8E7484B484900228B4202D243F8042B9E
:10023000FAE74649464A002352F8230041F82300D2
:1002400001336F2BF8D1434B434A802103F8011B44
:100250009342FBD1414B3D4A1A60414B8A221A70AE
:10026000A3F5805324225A70A0221A709A7992071B
:10027000FCD59A79D406FCD43A4A937903F00C035E
:10028000082B384BF9D105221A7143225A719A79F9
:100290009006FCD5334A9179324B4906FBD5324A58
:1002A0004FF0817111600521516020221A709A79F6
:1002B00002F00C020C2AFAD12C4B2D4A1A602D4B5D
:1002C0002D4A1A6000225A60072243F8042C2B4A58
:1002D000C3F80C2D62B606F00DFC144B1B68DA0750
:1002E00005D5274806F074FB264B274A1A60274B92
:1002F0001B785B0609D5234C234B22689A4204D114
:100300001F4806F065FB0023236008F009FE06F095
:10031000CBFA08F08FF8FEE70E200540308004404D
:10032000823F04000100002B10D0034014D0034092
:1003300002D0074000E007402490FF1FF4AA00000D
:100340002087FF1F2490FF1F249EFF1F0082FF1F96
:100350000000000000E400E05FE400E008ED00E0E1
:1003600000500640004006404480044004800440A1
:10037000C010050014E000E03F190100000020203B
:100380006189845E1CE00340A5C3945A00F00740D5
:10039000FFFFFFFFFFFFFFFFFFFFFFFFFFFFFFFF6D
:1003A000FFFFFFFFFFFFFFFFFFFFFFFFFFFFFFFF5D
:1003B000FFFFFFFFFFFFFFFFFFFFFFFFFFFFFFFF4D
:1003C000FFFFFFFFFFFFFFFFFFFFFFFFFFFFFFFF3D
:1003D000FFFFFFFFFFFFFFFFFFFFFFFFFFFFFFFF2D
:1003E000FFFFFFFFFFFFFFFFFFFFFFFFFFFFFFFF1D
:1003F000FFFFFFFFFFFFFFFFFFFFFFFFFFFFFFFF0D
:10040000FFFFFFFFFFFFFFFFFFFFFFFFDEF9FFFF23
:1004100010B5054C237833B9044B13B10448AFF33E
:1004200000800123237010BD2490FF1F00000000F6
:10043000F8AA0000084B10B51BB108490848AFF3F3
:1004400000800848036803B910BD074B002BFBD0A0
:10045000BDE81040184700BF000000002890FF1FB3
:10046000F8AA00002490FF1F0000000010B582B021
:10047000044600F07BF8054B1B680193019B636702
:100480000022204684F8702002B010BD289BFF1F78
:1004900090F85E3003B970472DE9F04F8DB090F8B9
:1004A0003F3090F83C7090F83D8090F83E90059376
:1004B0000446B0F84050B0F84260B0F844A0B0F83C
:1004C00046B000F0BBFAD0B9626F274803680793C3
:1004D000079B9B1A9B451BD994F87030C3B1059BB1
:1004E000009302964B46019542463946204600F05D
:1004F000A9F8002384F870300DB0BDE8F08F1A48D9
:1005000003680693069A6267012384F87030DDE77A
:1005100003680893089B144F9B1A9A450ED9D3443D
:1005200003680A930A9B10499A1A5A45E4D30B6848
:100530000B930B9B63670DB0BDE8F08F3B6809938D
:10054000099BD3449B1A9B45EAD394F87030002B47
:10055000E6D18DE868001A461946204600F072F888
:10056000012384F87030C7E7289BFF1FF8B51D4EA4
:1005700000250123044683700F46057045703146FF
:10058000083007F02FFE294604F1180007F02AFE74
:10059000294604F12C0007F025FE314684F83C5032
:1005A00084F83D5084F83E5084F83F50A4F8405001
:1005B000A4F84250A4F84450A4F8465004F148006E
:1005C00007F010FEA4F85850A4F85A50A4F85C5054
:1005D00084F85E50314604F1600007F003FE676066
:1005E0002046F8BDD8A7000030B4029D406809023B
:1005F000DBB243EA056301F47F4412041C4302F4B6
:100600007F012143BDF81030BDF80C2030BC05F04F
:10061000BBBF00BF406805F0D9BE00BF70B4049DE9
:100620009DF80C604068120202F47F4446EA0565BA
:100630001B042C4303F47F02224389B270BC05F0F3
:100640009DBF00BF2DE9F041079F069E089C09024F
:10065000DBB243EA0663E41B01F47F4512048046E3
:100660001D4302F47F01631C013F2943BAB2406875
:100670009BB205F089FFD8F80400BDE8F04105F011
:10068000A5BE00BF603007F0FDBD00BFB0F8402040
:100690000B8F70B59B1A4E8FB0F84250002B04465A
:1006A000A5EB06050BDD0121013A417092B24068CD
:1006B0009BB2002105F068FF606805F087FE002D01
:1006C0000CDD012161706068ABB23246002105F09B
:1006D0005BFF6068BDE8704005F078BE70BD00BF8C
:1006E00070B5424E96B004463146684607F07AFD32
:1006F00004A8002107F076FD09A8002107F072FD8B
:100700000025314610A88DF834508DF835508DF8FD
:1007100036508DF83750ADF83850ADF83A50ADF846
:100720003C50ADF83E5007F05DFD694604F108000D
:10073000ADF85050ADF85250ADF854508DF85650B9
:1007400007F0A0FD04A904F1180007F09BFD9DF837
:10075000203084F8283009A904F12C0007F092FD1C
:100760009DF834009DF835109DF836209DF83730FF
:1007700084F83C0084F83D10BDF83800BDF83A100C
:1007800084F83E2084F83F30BDF83C20BDF83E3070
:10079000A4F84000A4F84210A4F84420A4F846307D
:1007A00010A904F1480007F06DFDBDF85030BDF808
:1007B00054109DF85620BDF85250A4F8583001232B
:1007C000A4F85C1084F85E20A37010A8A4F85A5016
:1007D00007F0C8FC09A807F0C5FC04A807F0C2FC94
:1007E000684607F0BFFC16B070BD00BFD8A7000078
:1007F000B0F84020B0F8423010B59B1A04460133DF
:10080000013A406800219BB292B205F0BDFE6068DB
:10081000BDE8104005F0DABD2DE9F041012396B0A6
:10082000054600F8603B0C4607F0AAFD40B194F87D
:1008300056304BB92846FFF7DBFF2846FFF750FF3D
:10084000FF2016B0BDE8F08104F11008214668468B
:1008500007F0DCFC04F12407414604A807F0D6FCAD
:1008600094F820308DF82030394609A807F0CEFCE6
:1008700094F8342094F835308DF834208DF83530E4
:1008800094F8362094F837308DF8362004F140067D
:10089000228F8DF83730638FADF838203146A28F24
:1008A000ADF83A3010A8E38FADF83C20ADF83E30FB
:1008B00007F0ACFCB4F85030B4F85200B4F854204F
:1008C000ADF85030694694F85630ADF852002846DD
:1008D000ADF854208DF85630FFF7D8FE10A807F079
:1008E00041FC09A807F03EFC04A807F03BFC684661
:1008F00007F038FC2146684607F088FC414604A80A
:1009000007F084FC94F820308DF82030394609A88F
:1009100007F07CFC94F8352094F8363094F837E0F2
:10092000278F8DF83520314694F83460A28F8DF8EA
:1009300034608DF83630668FE38F8DF837E010A87D
:10094000ADF83870ADF83A60ADF83C20ADF83E3007
:1009500007F05CFCB4F85000B4F8542094F856301A
:10096000B4F85260ADF85000694605F10800ADF8E2
:1009700054208DF85630ADF8526007F083FC04A97E
:1009800005F1180007F07EFC9DF8203085F828302E
:1009900009A905F12C0007F075FC9DF834309DF88D
:1009A0003510BDF83A00BDF83C209DF836709DF832
:1009B0003760BDF8384085F83C30BDF83E3085F8EA
:1009C0003D10A5F8420010A9A5F84420A5F846302E
:1009D00085F83E7085F83F60A5F8404005F1480075
:1009E00007F050FCBDF85210BDF854209DF8563069
:1009F000BDF85000A5F85A10A5F85C2085F85E30C7
:100A0000A5F8580010A807F0ADFB09A807F0AAFB4D
:100A100004A807F0A7FB684607F0A4FBFF2016B068
:100A2000BDE8F0810346002200781A70704700BFCD
:100A30000346002240785A70704700BF83781BB18C
:100A4000002383700120704718467047F8B50546AB
:100A50001E2345F8043B074600F5F2762C46204657
:100A60000021103407F0BEFBB442F8D13B68002BE4
:100A70000ADD00242846054907F014FC3B680134D0
:100A8000A34205F11005F5DC3846F8BDD8A70000F3
:100A900070B5064684B0684607F0B8FB3368002B93
:100AA00013DD351D002403E033680134A3420CDD5F
:100AB0002846694607F064FC10350028F4D06846E3
:100AC00007F050FB204604B070BD684607F04AFBB3
:100AD0004FF0FF34204604B070BD00BF30B585B084
:100AE0000446684607F092FB69462046FFF7D0FFB0
:100AF0000546684607F036FB002D05DB04EB0510C4
:100B00000430024907F0CEFB05B030BDD8A7000085
:100B100070B5064684B06846104907F063FB336839
:100B2000002B13DD351D002403E033680134A3429C
:100B30000CDD2846694607F023FC10350028F4D068
:100B4000684607F00FFB204604B070BD684607F00A
:100B500009FB4FF0FF34204604B070BDD8A7000059
:100B600038B50D460446FFF7D3FF002807DB04EB3A
:100B7000001029460430BDE8384007F083BB38BD7B
:100B800070B5064684B0684607F040FB3368002B1A
:100B900014DD351D002403E033680134A3420DDD6C
:100BA0002846694607F0ECFB10350028F4D068466B
:100BB00007F0D8FAE043C00F04B070BD684607F0F4
:100BC000D1FA002004B070BDF8B50368002B10DD29
:100BD000002406462746051D2846074907F0DEFB88
:100BE0000134103500B901373368A342F4DC3846CC
:100BF000F8BD0027FBE700BFD8A70000F0B50E4600
:100C000085B01A49074607F0EDFA3368002B25DD59
:100C1000341D002504E03368AB4204F110041DDDEF
:100C20001249204607F0BAFB01350028F3D13946B6
:100C3000684607F0EBFA0E49684607F07DFB21464F
:100C400007F072FB0146384607F01CFB684607F0C8
:100C500089FA3368AB4204F11004E1DC022200217E
:100C6000384607F0CBFB384605B0F0BDD8A70000EA
:100C7000DCA20000F8B50E460D49074607F0B2FAAF
:100C80003368002B12DD341D002504E03368AB42CD
:100C900004F110040ADD0649204607F07FFB013508
:100CA0000028F3D12146384607F0ECFA3846F8BD63
:100CB000D8A700002DE9F0471E4B814682B040F8CE
:100CC000043B0D46FFF7C2FE1B4B1B680193032339
:100CD000019AC9F8243209F5FC7A0023C9F82C22BC
:100CE000574689F8283289F8293209F5F27409F54E
:100CF0000376702007F0A6FB2946804601F0A8FE87
:100D000044F8048F782007F09DFB29468046FFF7C2
:100D1000ADFB47F8048F942007F094FB29468046EA
:100D200001F0C4FE544546F8048FE2D1484602B0B3
:100D3000BDE8F0870080BB44289BFF1F10B591F8E9
:100D4000563084B00446684663B107F05FFA6946DE
:100D5000201DFFF715FF0446684607F003FA2046FA
:100D600004B010BD07F052FA6946201DFFF708FFD6
:100D70000446684607F0F6F9002C0CBF4FF0FF3030
:100D8000022004B010BD00BF2DE9F0439BB00C461B
:100D900005460021684607F025FA2E1D214604A8C5
:100DA00007F034FA04A93046FFF7DAFE04A807F08A
:100DB000D9F9214604A807F029FA04A93046FFF71B
:100DC00067FE04F11006074604A807F0CBF9314688
:100DD000684607F057FA6846A14907F0DFFA00288D
:100DE00040F0D9809F49684607F0D8FA00286ED1B4
:100DF0009D49684607F0D2FA002862D005EB8705C6
:100E00002146D5F8107204A807F000FA04A9384664
:100E1000FFF738FC04A807F0A5F9214604A8D5F887
:100E2000105207F0F3F9314608A807F0EFF994F8EB
:100E300020308DF8303004F124010DA807F0E6F9D8
:100E400094F8342094F835308DF844208DF84530EE
:100E500094F8362094F837308DF846208DF84730D6
:100E6000228F638FADF84820ADF84A30A28FE38F10
:100E7000ADF84C2004F1400114A8ADF84E3007F055
:100E8000C5F9B4F85010B4F8542094F85630ADF8C1
:100E90006010284604A9B4F85250ADF864208DF8CB
:100EA0006630ADF86250FFF7B7FC14A807F05AF9A6
:100EB0000DA807F057F908A807F054F904A807F09F
:100EC00051F9684607F04EF91BB0BDE8F08305EB19
:100ED00087082146D8F8FC9104A807F097F904A9DF
:100EE0004846FFF7CFFB04A807F03CF9214604A8C9
:100EF000D8F8FC8107F08AF9314608A807F086F98E
:100F000094F820308DF8303004F124010DA807F05A
:100F10007DF994F8342094F835308DF844208DF81C
:100F2000453094F8362094F837308DF846208DF807
:100F30004730228F638FADF84820ADF84A30A28F3A
:100F4000E38FADF84C2004F1400114A8ADF84E3009
:100F500007F05CF9B4F85030B4F85210B4F85420EB
:100F6000ADF86030ADF8621094F85630ADF86420FA
:100F700004A940468DF86630FFF74EFC14A807F030
:100F8000F1F80DA807F0EEF808A807F0EBF804A8B0
:100F900007F0E8F82CE705EB87082146D8F8E89138
:100FA00004A807F033F904A94846FFF76BFB04A82F
:100FB00007F0D8F8214604A8D8F8E88107F026F908
:100FC000314608A807F022F994F820308DF8303027
:100FD00004F124010DA807F019F994F8342094F8CD
:100FE00035308DF844208DF8453094F8362094F84B
:100FF00037308DF846208DF84730228F638FADF85B
:101000004820ADF84A30A28FE38FADF84C2004F1B0
:10101000400114A8ADF84E3007F0F8F8B4F850309D
:10102000B4F85210B4F85420ADF86030ADF8621046
:1010300094F85630ADF8642004A940468DF8663027
:10104000FFF7EAFB14A807F08DF80DA807F08AF85F
:1010500008A807F087F804A807F084F8C2E600BFE4
:10106000E0A20000E8A20000F0A200002DE9F0419B
:101070009AB00C4606460021684607F0B3F82146B0
:1010800004A807F0C3F804A9301DFFF701FD04F11F
:101090001005074604A807F065F82946684607F0DA
:1010A000F1F868468D4907F079F9002840F0BE80D4
:1010B0008B49684607F072F9002860D18949684673
:1010C00007F06CF9002854D08437214604A856F85C
:1010D000276007F09BF8294608A807F097F894F8CE
:1010E00020308DF8303004F124010DA807F08EF87F
:1010F00094F8342094F835308DF844208DF845303C
:1011000094F8362094F837308DF846208DF8473023
:10111000228F638FADF84820ADF84A30A28FE38F5D
:10112000ADF84C2004F1400114A8ADF84E3007F0A2
:101130006DF8B4F85010B4F8542094F85630B4F860
:101140005250ADF86010304604A9ADF864208DF817
:101150006630ADF86250FFF75FFB14A807F002F8A5
:101160000DA806F0FFFF08A806F0FCFF04A806F093
:10117000F9FF684606F0F6FF1AB0BDE8F08106EB0D
:101180008703214604A8D3F8FC8107F03FF82946DD
:1011900008A807F03BF894F820308DF8303004F1BF
:1011A00024010DA807F032F894F8342094F8353073
:1011B0008DF844208DF8453094F8362094F8373077
:1011C0008DF846208DF84730228F638FADF8482088
:1011D000ADF84A30A28FE38FADF84C2004F1400106
:1011E00014A8ADF84E3007F011F8B4F85030B4F848
:1011F0005210B4F85420ADF86030ADF8621094F895
:101200005630ADF8642004A940468DF86630FFF7EB
:1012100003FB14A806F0A6FF0DA806F0A3FF08A87C
:1012200006F0A0FF04A806F09DFF47E707F17A0348
:10123000214604A856F8238006F0E8FF294608A8AE
:1012400006F0E4FF94F820308DF8303004F12401EA
:101250000DA806F0DBFF94F8342094F835308DF8B3
:1012600044208DF8453094F8362094F837308DF8C6
:1012700046208DF84730228F638FADF84820ADF8B7
:101280004A30A28FE38FADF84C2004F1400114A83E
:10129000ADF84E3006F0BAFFB4F85030B4F8521042
:1012A000B4F85420ADF86030ADF8621094F85630C0
:1012B000ADF8642004A940468DF86630FFF7ACFA1B
:1012C00014A806F04FFF0DA806F04CFF08A806F082
:1012D00049FF04A806F046FFEAE600BFE0A20000CE
:1012E000E8A20000F0A200002DE9F0430C469BB0FC
:1012F00006460021684604F1100706F073FF3946E0
:10130000684606F0BFFF351D214604A806F07EFFA3
:1013100004A92846FFF7BCFB804604A806F022FF7C
:10132000214604A806F072FF04A92846FFF7D6FB61
:1013300004A806F017FF6846A14907F02FF8002817
:1013400040F0D9809F49684607F028F800286ED100
:101350009D49684607F022F8002862D006EB88060F
:10136000214604A8D6F8105206F050FF394608A8C6
:1013700006F04CFF94F820308DF8303004F1240151
:101380000DA806F043FF94F8342094F835308DF81A
:1013900044208DF8453094F8362094F837308DF895
:1013A00046208DF84730228F638FADF8482004F136
:1013B0004001A28FADF84A3014A8E38FADF84C205D
:1013C000ADF84E3006F022FFB4F85010B4F85420B7
:1013D00094F85630ADF86010284604A9B4F852507D
:1013E000ADF864208DF86630ADF86250FFF714FA5E
:1013F00014A806F0B7FE0DA806F0B4FE08A806F083
:10140000B1FE04A806F0AEFED6F810426F4904A85B
:1014100006F0E8FE204604A9FFF734F904A806F018
:10142000A1FE684606F09EFE1BB0BDE8F08306EB09
:101430008805214604A8D5F8FC9106F0E7FE394658
:1014400008A806F0E3FE94F820308DF8303004F15F
:1014500024010DA806F0DAFE94F8342094F8353013
:101460008DF844208DF8453094F8362094F83730C4
:101470008DF846208DF84730228F638FADF84820D5
:10148000ADF84A30A28FE38FADF84C2004F1400153
:1014900014A8ADF84E3006F0B9FEB4F85030B4F8E8
:1014A0005210B4F85420ADF86030ADF8621094F8E2
:1014B0005630ADF8642004A948468DF86630FFF731
:1014C000ABF914A806F04EFE0DA806F04BFE08A8D6
:1014D00006F048FE04A806F045FED5F8FC513B494D
:1014E00004A806F07FFE284604A9FFF7CBF804A85D
:1014F00006F038FE2CE706EB8805214604A8D5F84F
:10150000E89106F083FE394608A806F07FFE94F8BD
:1015100020308DF8303004F124010DA806F076FE5D
:1015200094F8342094F835308DF844208DF8453007
:1015300094F8362094F837308DF846208DF84730EF
:10154000228F638FADF84820ADF84A30A28FE38F29
:10155000ADF84C2004F1400114A8ADF84E3006F06F
:1015600055FEB4F85030B4F85210B4F85420ADF829
:101570006030ADF8621094F85630ADF8642004A9DC
:1015800048468DF86630FFF747F914A806F0EAFDE3
:101590000DA806F0E7FD08A806F0E4FD04A806F093
:1015A000E1FDD5F8E851094904A806F01BFE2846DC
:1015B00004A9FFF767F804A806F0D4FDC2E600BF4F
:1015C000E0A20000E8A20000F0A20000D8A70000FE
:1015D0002DE9F04397B00C46064601F11009684624
:1015E00006F014FE04F12408494604A806F00EFE95
:1015F00094F820308DF82030414609A806F006FE08
:1016000094F8342094F835308DF834208DF8353046
:1016100094F8362094F837308DF836208DF837302E
:10162000228F638FADF8382004F14007A28FADF808
:101630003A303946E38FADF83C2010A8ADF83E3083
:1016400006F0E4FDB4F85030B4F85210B4F8542069
:10165000ADF85030ADF8521094F85630ADF8542033
:10166000694630468DF85630FFF768FB054610A8EE
:1016700006F078FD09A806F075FD04A806F072FDD5
:10168000684606F06FFD012D00F09E80022D56D0B9
:1016900015B117B0BDE8F0832146684606F0B6FDE7
:1016A000494604A806F0B2FD94F820308DF82030A9
:1016B000414609A806F0AAFD94F8345094F8352064
:1016C00094F8363094F837008DF834503946658FE9
:1016D000278F8DF835208DF83630A28FE38F8DF867
:1016E000370010A8ADF83A50ADF83C20ADF83E30C8
:1016F000ADF8387006F08AFDB4F85010B4F85250C6
:10170000B4F8542094F85630ADF85010304669467D
:10171000ADF85250ADF854208DF85630FFF734FB39
:1017200010A806F01FFD09A806F01CFD04A806F08D
:1017300019FD684606F016FD17B0BDE8F083214696
:10174000684606F063FD494604A806F05FFD94F87C
:1017500020308DF82030414609A806F057FD94F856
:10176000345094F8352094F8363094F837008DF8DA
:1017700034503946658F278F8DF835208DF83630F7
:10178000A28FE38F8DF8370010A8ADF83A50ADF86E
:101790003C20ADF83E30ADF8387006F037FDB4F8B7
:1017A0005010B4F85250B4F8542094F85630ADF8B4
:1017B000501030466946ADF85250ADF854208DF8BF
:1017C0005630FFF791FDABE72146684606F01EFD57
:1017D000494604A806F01AFD94F820308DF8203010
:1017E000414609A806F012FD94F8345094F83520CB
:1017F00094F8363094F837008DF834503946658FB8
:10180000278F8DF835208DF83630A28FE38F8DF835
:10181000370010A8ADF83A50ADF83C20ADF83E3096
:10182000ADF8387006F0F2FCB4F85010B4F852502D
:10183000B4F8542094F85630ADF85010304669464C
:10184000ADF85250ADF854208DF85630FFF70EFC2D
:1018500066E700BFF8B500F5FC773E4600F5F27488
:1018600000F5037554F8040F01F0F8F856F8040F6A
:10187000FEF70EFE55F8040F01F032F9BC42F1D12B
:10188000F8BD00BF2DE9F0418046B0B0061D002430
:1018900099E10021684606F0A5FC1AA83146FFF739
:1018A000E9F91AA9684606F0F5FC1AA806F05AFCF0
:1018B00069461AA806F0AAFC1AA93046FFF7E8F80C
:1018C00005461AA806F04EFC69461AA806F09EFCCA
:1018D0001AA93046FFF702F91AA806F043FCBE49E0
:1018E00004A806F07FFC002108A806F07BFC00217C
:1018F0000DA806F077FCB8498DF8444014A808EB11
:1019000085058DF845408DF846408DF84740ADF887
:101910004840ADF84A40ADF84C40ADF84E4006F0B6
:1019200061FC694604A8ADF86040ADF86240ADF8CE
:1019300064408DF8664006F0A5FC04A91AA8D5F805
:10194000E8718DF8664006F061FC08A91EA806F053
:101950005DFC9DF830308DF888300DA923A806F085
:1019600055FC9DF844209DF845308DF89C208DF85D
:101970009D309DF846209DF847308DF89E208DF8CB
:101980009F30BDF84820BDF84A30ADF8A02014A91A
:10199000BDF84C20ADF8A2302AA8BDF84E30ADF805
:1019A000A420ADF8A63006F031FCBDF86030BDF8DB
:1019B0006420ADF8B8301AA99DF86630ADF8BC20A7
:1019C0003846BDF862708DF8BE30ADF8BA70FEF7DB
:1019D00023FF2AA806F0C6FB23A806F0C3FB1EA817
:1019E00006F0C0FB1AA806F0BDFBD5F8E80101F02F
:1019F00035F804A91AA8D5F8FC7106F007FC08A967
:101A00001EA806F003FC9DF830308DF888300DA933
:101A100023A806F0FBFB9DF844209DF845308DF887
:101A20009C208DF89D309DF846209DF847308DF81C
:101A30009E208DF89F30BDF84820BDF84A30ADF8A3
:101A4000A02014A9BDF84C20ADF8A2302AA8BDF8FA
:101A50004E30ADF8A420ADF8A63006F0D7FBBDF8A7
:101A60006030BDF86420ADF8B8301AA99DF8663032
:101A7000ADF8BC203846BDF862708DF8BE30ADF8C8
:101A8000BA70FEF7C9FE2AA806F06CFB23A806F080
:101A900069FB1EA806F066FB1AA806F063FBD5F8E2
:101AA000FC01FEF7F5FC04A91AA8D5F8107206F09F
:101AB000ADFB08A91EA806F0A9FB9DF830308DF8F3
:101AC00088300DA923A806F0A1FB9DF844209DF8BD
:101AD00045308DF89C208DF89D309DF846209DF86E
:101AE00047308DF89E208DF89F30BDF84820BDF816
:101AF0004A30ADF8A02014A9BDF84C20ADF8A230B2
:101B00002AA8BDF84E30ADF8A420ADF8A63006F0F6
:101B10007DFBBDF86030BDF86420ADF8B8301AA97F
:101B20009DF86630ADF8BC203846BDF862708DF87F
:101B3000BE30ADF8BA70FEF76FFE2AA806F012FBB1
:101B400023A806F00FFB1EA806F00CFB1AA806F04F
:101B500009FBD5F8100200F0C3FFD5F8E8711E4963
:101B60001AA806F03FFB1AA93846FEF78BFD1AA803
:101B700006F0F8FAD5F8FC7117491AA806F032FBFE
:101B80001AA93846FEF77EFD1AA806F0EBFAD5F83A
:101B9000105211491AA806F025FB1AA92846FEF78B
:101BA00071FD1AA806F0DEFA14A806F0DBFA0DA8FB
:101BB00006F0D8FA08A806F0D5FA04A806F0D2FA7A
:101BC000684606F0CFFA3046FEF7FEFF00283FF7E2
:101BD00060AE30B0BDE8F081D8A7000010B5043188
:101BE0000446FFF70BF8204610BD00BF2DE9F04F6B
:101BF0004FF4FA60154685B00E4604F02BFF2846D8
:101C0000564906F0CBFB56490028284614BF142439
:101C1000002406F0C3FB53490028284618BF282497
:101C200006F0BCFB06F1100700284F49384618BFE4
:101C30003C2406F0B3FB4D490546384606F0AEFBA2
:101C400068B9003538464A4918BF012506F0A6FB99
:101C500060B964B128467DB905B0BDE8F08F38465B
:101C60004349022506F09AFB0028F2D01CB9204611
:101C700005B0BDE8F08F032596F8343096F835208E
:101C80000393029296F8363096F83720394901923C
:101C900006F140000093B6F838A0B6F83A90B6F8CE
:101CA0003E80B78F06F07AFB29468346601CB6F863
:101CB000505004F0A3FD039BA01C194604F09EFDA8
:101CC000029AE01C114604F099FD0099201D04F0D1
:101CD00095FD0199601D04F091FD4FEA1A21A01DA8
:101CE00004F08CFD5FFA8AF1E01D04F087FD4FEAF5
:101CF000192104F1080004F081FD5FFA89F104F173
:101D0000090004F07BFD4FEA182104F10A0004F0F9
:101D100075FD5FFA88F104F10B0004F06FFD390ADC
:101D200004F10C0004F06AFDF9B204F10D0004F0B6
:101D300065FDBBFA8BF104F10E00490904F05EFD6C
:101D4000290A04F10F0004F059FD04F11000E9B272
:101D500004F054FD012005B0BDE8F08FF8A20000AA
:101D600000A3000008A30000E0A20000E8A2000019
:101D7000F0A2000010A30000F0B516469BB00F467D
:101D800000211C46054606F02DFA3046AA4906F009
:101D900005FB00286BD0A949209806F0FFFA00281F
:101DA0006CD0214604A806F031FA04F1100108A80D
:101DB00006F02CFA94F820308DF8303004F124012C
:101DC0000DA806F023FA94F8342094F835308DF8F5
:101DD00044208DF8453094F8362094F837308DF84B
:101DE00046208DF84730228F638FADF8482004F1EC
:101DF0004001A28FADF84A3014A8E38FADF84C2013
:101E0000ADF84E3006F002FAB4F85030B4F8521083
:101E1000B4F85420ADF86030ADF8621094F8563044
:101E200086498DF866306846ADF8642006F0DAF928
:101E30006A4604A93846FFF7D9FE0446684606F00C
:101E400091F914A806F08EF90DA806F08BF908A8F0
:101E500006F088F904A806F085F9002C00F0DA8075
:101E60007749284606F01EFA28461BB0F0BD754992
:101E7000284606F017FA28461BB0F0BD7249209894
:101E800006F08CFA002862D0214604A806F0BEF9BC
:101E900004F1100108A806F0B9F994F820308DF883
:101EA000303004F124010DA806F0B0F994F8342084
:101EB00094F835308DF844208DF8453094F836206C
:101EC00094F837308DF846208DF84730228F638F95
:101ED000ADF8482004F14001A28FADF84A3014A8B3
:101EE000E38FADF84C20ADF84E3006F08FF9B4F822
:101EF0005030B4F85210B4F85420ADF86030ADF85A
:101F0000621094F8563050498DF866306846ADF846
:101F1000642006F067F96A4604A93846FFF766FEB2
:101F20000446684606F01EF914A806F01BF90DA831
:101F300006F018F908A806F015F904A806F012F939
:101F4000002C67D04149284606F0ACF993E7404998
:101F5000209806F023FA002868D0214604A806F04D
:101F600055F904F1100108A806F050F994F8203052
:101F70008DF8303004F124010DA806F047F994F8EB
:101F8000342094F835308DF844208DF8453094F89D
:101F9000362094F837308DF846208DF84730228F60
:101FA000638FADF8482004F14001A28FADF84A30AC
:101FB00014A8E38FADF84C20ADF84E3006F026F9AA
:101FC000B4F85030B4F85210B4F85420ADF8603082
:101FD000ADF8621094F856301D498DF866306846A9
:101FE000ADF8642006F0FEF86A4604A93846FFF70B
:101FF000FDFD0446684606F0B5F814A806F0B2F8F0
:102000000DA806F0AFF808A806F0ACF804A806F092
:10201000A9F834B90F49284606F044F928461BB000
:10202000F0BD0D49284606F03DF924E70B49284646
:1020300006F038F91FE700BF18A30000F8A200005F
:1020400024A30000DCA3000000A3000068A300009C
:1020500008A3000050A3000094A30000C0A3000048
:102060002DE9F04F00F1100393B01D468A491193FA
:102070000446164606F0B6F82846002106F0B2F8E7
:1020800004F1400300210D461F4604F1240009938A
:1020900006F0A8F884F8345084F8355084F83650A7
:1020A00084F8375025876587A587E5877A493846BC
:1020B00006F098F8A4F85050A4F85250A4F85450E0
:1020C00084F856507549304606F068F97449A842BC
:1020D000304618BF142506F061F9724900283046D1
:1020E00018BF282506F05AF9002840F0A48005F111
:1020F0000A03019305F10B030A9305F10C030B93FB
:1021000005F10D030C9305F10E030D9305F10F037B
:102110000E9305F110030F9305F1080305F109076C
:10212000029305F1070805F1060905F1050A05F115
:10213000040BEB1CAA1C0135314620460393049284
:1021400006F0A0F8012184F85610284604F03CFB64
:10215000049A1090104604F037FB039B0890184631
:1021600004F032FB0790584604F02EFB06905046D0
:1021700004F02AFB0590484604F026FB04904046F4
:1021800004F022FB0390029804F01EFB02903846F4
:1021900004F01AFB8146019804F016FB83460A9866
:1021A00004F012FB07460B9804F00EFB82460C98D5
:1021B00004F00AFB06460D9804F006FB01900E9809
:1021C00004F002FB80460F9804F0FEFA10990129F2
:1021D000054656D0022959D003294DD0039B049AB5
:1021E000099843EA0222029B228749EA0323638774
:1021F0009DF8203084F834309DF81C3084F8353058
:102200009DF8183084F836309DF8143084F8373053
:10221000019B47EA0B2746EA0A26E787A6873BB3D6
:10222000214906F03FF845EA08252046A4F8505019
:1022300013B0BDE8F08F442102914C210F914B2146
:102240000E914A210D9149210C9148210B91472172
:102250000A9146213D253E223F234FF0400B4FF08F
:10226000410A4FF042094FF043080191452763E7C7
:102270000E4906F017F8D6E711980D4906F012F846
:10228000ACE711980B4906F00DF8A7E711980A4939
:1022900006F008F8A2E700BFD8A70000F8A20000E7
:1022A00000A3000008A30000F0A3000010A300009A
:1022B000F0A20000E0A20000E8A2000070B5764E97
:1022C000B0B00546FFF7DEFA314604A805F08AFFF4
:1022D00008A8002105F086FF0DA8002105F082FF67
:1022E0000024314614A88DF844408DF845408DF8FF
:1022F00046408DF84740ADF84840ADF84A40ADF84B
:102300004C40ADF84E4005F06DFF68466349ADF8AE
:102310006040ADF86240ADF864408DF8664005F06D
:1023200061FF6A4629461AA8FFF79AFE1AA904A86F
:1023300005F0B0FF1EA908A805F0ACFF9DF8883095
:102340008DF8303023A90DA805F0A4FF9DF89C203E
:102350009DF89D308DF844208DF845309DF89E20E5
:102360009DF89F308DF846208DF84730BDF8A020AD
:10237000BDF8A230ADF848202AA9BDF8A420ADF8D8
:102380004A3014A8BDF8A630ADF84C20ADF84E3058
:1023900005F080FFBDF8B830BDF8BC20BDF8BA101C
:1023A000ADF860302AA89DF8BE30ADF864208DF8F5
:1023B0006630ADF8621005F0D5FE23A805F0D2FE18
:1023C0001EA805F0CFFE1AA805F0CCFE684605F061
:1023D000C9FE04A91AA805F019FF08A91EA805F04E
:1023E00015FF9DF830308DF888300DA923A805F031
:1023F0000DFF9DF844209DF845309DF846408DF82E
:102400009C208DF89D309DF84720BDF848308DF810
:102410009E4014A9BDF84A408DF89F20ADF8A03029
:10242000BDF84C20BDF84E30ADF8A2402AA8ADF85A
:10243000A420ADF8A63005F0E9FEBDF864209DF8B3
:102440006630BDF86240ADF8BC201AA92846BDF838
:1024500060508DF8BE30ADF8B850ADF8BA40FFF717
:10246000B7F82AA805F07EFE23A805F07BFE1EA87B
:1024700005F078FE1AA805F075FE14A805F072FEA6
:102480000DA805F06FFE08A805F06CFE04A805F085
:1024900069FE30B070BD00BFD8A70000F8A20000F0
:1024A00070B5B0B005460E4604A89C4905F09AFEEA
:1024B000002108A805F096FE00210DA805F092FE67
:1024C000002496498DF8444014A88DF845408DF8B5
:1024D00046408DF84740ADF84840ADF84A40ADF869
:1024E0004C40ADF84E4005F07DFE8D49ADF86040A2
:1024F0006846ADF86240ADF864408DF8664005F07E
:1025000071FE6A4629461AA8FFF7AAFD1AA904A86F
:1025100005F0C0FE1EA908A805F0BCFE9DF8883095
:102520008DF8303023A90DA805F0B4FE9DF89C204D
:102530009DF89D308DF844208DF845309DF89E2003
:102540009DF89F308DF846208DF84730BDF8A020CB
:10255000BDF8A230ADF848202AA9BDF8A420ADF8F6
:102560004A3014A8BDF8A630ADF84C20ADF84E3076
:1025700005F090FEBDF8B830BDF8BA10BDF8BC202B
:10258000ADF860302AA89DF8BE30ADF86210ADF805
:1025900064208DF8663005F0E5FD23A805F0E2FD26
:1025A0001EA805F0DFFD1AA805F0DCFD684605F061
:1025B000D9FD002E6BD15A4904A805F073FE08A975
:1025C000084605F05FFE04A91AA88DF8666005F0BC
:1025D0001DFE08A91EA805F019FE9DF830308DF8E3
:1025E00088300DA923A805F011FE9DF844109DF830
:1025F00045009DF846209DF847308DF89C108DF8D9
:102600009D00BDF84810BDF84A008DF89E208DF859
:102610009F30BDF84C20BDF84E30ADF8A010ADF89D
:10262000A20014A92AA8ADF8A420ADF8A63005F0A0
:10263000EDFDBDF86010BDF86240BDF864209DF866
:102640006630ADF8B81028461AA9ADF8BA40ADF812
:10265000BC208DF8BE30FEF7BBFF2AA805F082FD36
:1026600023A805F07FFD1EA805F07CFD1AA805F043
:1026700079FD14A805F076FD0DA805F073FD08A8F6
:1026800005F070FD04A805F06DFD30B070BD284662
:10269000FFF7F8F804A91AA805F0B8FD08A91EA8C4
:1026A00005F0B4FD9DF830308DF888300DA923A8D1
:1026B00005F0ACFD9DF844209DF845309DF846108E
:1026C0008DF89C208DF89D309DF84720BDF848304E
:1026D0008DF89E10BDF84A108DF89F20ADF8A030FF
:1026E000BDF84C20BDF84E30ADF8A2102AA814A9B0
:1026F000ADF8A420ADF8A63005F088FDBDF8603037
:10270000BDF86210ADF8B830ADF8BA102846BDF883
:1027100064209DF866301AA999E700BFD8A7000089
:1027200000A3000070B5764EB0B00546FFF7AAF8DA
:10273000314604A805F056FD08A8002105F052FD19
:102740000DA8002105F04EFD0024314614A88DF897
:1027500044408DF845408DF846408DF84740ADF82F
:102760004840ADF84A40ADF84C40ADF84E4005F059
:1027700039FD68466349ADF86040ADF86240ADF898
:1027800064408DF8664005F02DFD6A4629461AA87A
:10279000FFF766FC1AA904A805F07CFD1EA908A88D
:1027A00005F078FD9DF888308DF8303023A90DA80C
:1027B00005F070FD9DF89C209DF89D308DF844201B
:1027C0008DF845309DF89E209DF89F308DF846206D
:1027D0008DF84730BDF8A020BDF8A230ADF84820F4
:1027E0002AA9BDF8A420ADF84A3014A8BDF8A63037
:1027F000ADF84C20ADF84E3005F04CFDBDF8B830CA
:10280000BDF8BC20BDF8BA10ADF860302AA89DF81C
:10281000BE30ADF864208DF86630ADF8621005F07A
:10282000A1FC23A805F09EFC1EA805F09BFC1AA89D
:1028300005F098FC684605F095FC04A91AA805F077
:10284000E5FC08A91EA805F0E1FC9DF830308DF8E4
:1028500088300DA923A805F0D9FC9DF844209DF8E7
:1028600045309DF846408DF89C208DF89D309DF8B0
:102870004720BDF848308DF89E4014A9BDF84A4065
:102880008DF89F20ADF8A030BDF84C20BDF84E303B
:10289000ADF8A2402AA8ADF8A420ADF8A63005F006
:1028A000B5FCBDF864209DF86630BDF86240ADF817
:1028B000BC201AA92846BDF860508DF8BE30ADF88E
:1028C000B850ADF8BA40FEF783FE2AA805F04AFCDE
:1028D00023A805F047FC1EA805F044FC1AA805F043
:1028E00041FC14A805F03EFC0DA805F03BFC08A82F
:1028F00005F038FC04A805F035FC30B070BD00BF11
:10290000D8A7000008A3000010B5D0F82432033B7C
:1029100084B00446062B19D8DFE803F01D273218CF
:102920004150040090F82832002B5ED1D0F82C02E0
:10293000344B1B680293029B181A06F089F8216831
:1029400006F09AFA10B10723C4F824322046FEF7A5
:1029500081FF04B010BDFFF7B1FC0823C4F8243296
:102960002046FEF777FF04B010BD0121FFF798FD68
:102970000923C4F824322046FEF76CFF04B010BDD2
:10298000204AD0F82C32126803920398C01A06F03D
:102990005FF8216806F070FA0028D4D1D6E7FFF777
:1029A000C1FE0023082284F8283284F82932C4F8B2
:1029B00024222046FEF74EFF04B010BD124B1B78B8
:1029C000002BC3D0114B1B78DB07BFD50D4B104A32
:1029D0001B6812689B1A0E2BB8D990F82932002B6D
:1029E000B4D00423C4F82432B0E70021FFF758FD27
:1029F000044B1A6801920198C4F82C020522C4F80D
:102A0000242296E7289BFF1FA49CFF1FBC9CFF1F4E
:102A10001C9EFF1F38B500211546044605F0E2FB59
:102A20002846084905F0BAFC28B90749204605F0B0
:102A300039FC204638BD41F2883004F00BF804F030
:102A400013FB00BF18A30000DCA3000003F074BE5A
:102A500010B50446FDF78AFD204610BD70B584B060
:102A60000446FDF7DFFF70B194F85E30B4F8400023
:102A7000B4F842504BB901900295009320461A4693
:102A80001946FDF7DFFD04B070BD94F83F6094F87F
:102A90003E3094F83D2094F83C1001900295009649
:102AA0002046FDF7CFFD04B070BD00BF10B5044651
:102AB000FDF75CFD03F0AAFF0023002284F87830C4
:102AC00020676367C4F88830C4F88C30C4F890304D
:102AD000E267C4F88020C4F88420204610BD00BFFF
:102AE0002DE9F04F04468BB094F83E30049300F18A
:102AF000480194F83F3094F83CA094F83DB0059319
:102B000006A8B4F84060B4F84250B4F8588005F014
:102B10007DFB2046B4F85C9094F85E70FDF788FF6A
:102B200030B98FB906A805F01DFB0BB0BDE8F08FDA
:102B3000002366671A4602958DE84800194620462C
:102B4000FDF780FD002FEDD06B1C9B1BA4F87A30A5
:102B500003F05CFF236FC01A05F07AFF634906F0AB
:102B600083F80746E067404605F076FF8046B4F8F4
:102B70007A00013005F070FF0146404606F074F817
:102B80000021C4F88410C4F8800005F0B1FE0146AD
:102B9000384606F067F90028C4D003F037FFE16F2C
:102BA0002067D4F8800005F0A1FE0146D4F8840027
:102BB00005F09EFE636FC4F884009D4250DBD4F89C
:102BC0008830994534DC4A48052104F079F800231F
:102BD000C4F888302046FDF71DFD636F9D4216DC6A
:102BE00095FBF9F2002109FB12558D42C4F88810BB
:102BF00015DDD4F88C20002A43D1D4F89010C5EB11
:102C00000905A94267DA0131C4F89010013B01338C
:102C1000636706A805F0A6FA0BB0BDE8F08FD4F8FC
:102C2000902009F1FF394A4550DBC4F89010EEE7D7
:102C3000304906A805F0B2FB88B3616F059B01938C
:102C4000049B009352465B4601392046FDF7E6FCA3
:102C5000D4F8883001339945C4F88830BDDCB2E738
:102C6000B4F87A300293721E0023019200931A4640
:102C700019462046FDF7B8FC2046FDF7CBFC6667F9
:102C800050E7012AC3D1D4F8902009F1FF394A4511
:102C90001CDB0022C4F89020C4F88C20B7E716494A
:102CA00006A805F07BFB0028D2D0059AB4F87A304C
:102CB0000192616F049A009203EB4606711A5B461B
:102CC000524602392046FDF7A9FCC1E70132C4F89B
:102CD0009020013B9BE7C4F890202046FDF79AFC2A
:102CE0000123C4F88C30636FCDE700BF00007A4445
:102CF000F8A3000010A30000F0A3000043680B70CD
:102D000043681B0A4B70C3888B70C379CB70836890
:102D10000B7183681B0A4B7143898B71C37ACB712A
:102D2000082070470B7843604A7843EA02234360E7
:102D30008A7843EA02434360CA7843EA0263436005
:102D40000B7983604A7943EA022383608A7943EAF4
:102D500002438360CA7943EA0263836008207047B4
:102D600000487047D0A5000000487047E0A500006B
:102D7000F0B50C460A788280064614F8010F00234D
:102D800042EA0022B2801A4614F8010F9840083334
:102D9000202B42EA0002F7D1971D062F58D901F1E6
:102DA000050E551D73464C1913F8010F03F8010C5D
:102DB000A342F9D100234B5518460D44C6F808E04C
:102DC00015F8014F84400830202843EA0403F7D166
:102DD000381D0344834209D909320A4404460134A8
:102DE00012F8015F02F8015CA342F8D80138CF184D
:102DF0000024084407F8014C2246F06017F8015BF4
:102E000095400832202A44EA0504F7D1181D0444ED
:102E1000A04209D203330B440246013213F8015F8A
:102E200003F8015CA242F8D30D19013808440023CD
:102E300005F8013C3061A8786B780A5DED780104F3
:102E400041EA0323134343EA0563201D7361F0BD88
:102E5000551D01F1050EADE70048704704A60000BE
:102E60000048704720A600000B78F0B403710023DF
:102E700006460C461D4614F8012F9A400833202BB5
:102E800045EA0205F7D1681D052801F1040708D9B4
:102E90002C1D3B460C4413F8012F03F8012C9C42D7
:102EA000F9D10D4400232B71B760F0BC704700BF0F
:102EB0000048704744A600000048704758A600002C
:102EC0000048704718A90000004870477CA6000021
:102ED0000023F0B51A464D1E15F8014F9C400833EB
:102EE000202B42EA0402F7D1171D042F40F2A480E0
:102EF00001F1030ED61C73468D1913F8014F03F828
:102F0000014C9D42F9D100238B551C460E44C0F85C
:102F100004E016F8015FA5400834202C43EA0503BD
:102F2000F7D13E1D33449E4209D207320A4434464B
:102F3000013412F8015F02F8015C9C42F8D3721E62
:102F4000CE180A44002406F8014C8260CA5C027361
:102F50005F1C224616F8015FA5400834202C42EA87
:102F60000502F7D13E1D3244964209D20433551E64
:102F70000B440D4413F8014F03F8014C9D42F9D165
:102F80008C18013E0E44002304F8013C06618D5C60
:102F9000057565784575A5788575E578C5752579D4
:102FA0000583667945EA06250583A5794583E67993
:102FB00045EA06254583257A8583667A45EA06250E
:102FC0008583A47AC48302F10B051F464E5D44EA53
:102FD0000624C4830D4402F10C0615F8014F9C40F1
:102FE0000833202B47EA0407F7D1351D2F44BD4293
:102FF0000AD202F10F037C1E0B440C4413F8012F7C
:1030000003F8012C9C42F9D1CB19013D0D4400225B
:1030100003F8012C0562CA5D8284597842EA0122D4
:1030200082849A78C284D97842EA0122C2841B79C8
:1030300080F82830781DF0BDD61C01F1030E62E740
:103040000048704794A5000000487047A0A6000003
:1030500003790B70012070470B78037101207047D2
:103060000048704794A5000000487047C4A60000BF
:103070000022F0B513464D1E15F8014F944008325A
:10308000202A43EA0403F7D11F1D042F40F2988041
:1030900001F1030EDE1C72468D1912F8014F02F881
:1030A000014CAA42F9D100228A5514460E44C0F8B8
:1030B00004E016F8015FA5400834202C42EA05021E
:1030C000F7D13E1D3244964209D207330B443446B1
:1030D000013413F8015F03F8015C9442F8D3731EC6
:1030E0008E1800250B4406F8015C2C4683602B46A5
:1030F00016F8015BA5400834202C43EA0503F7D1FC
:10310000161D33449E4209D203320A443446013428
:1031100012F8015F02F8015C9C42F8D3CC18013E22
:103120000E44002204F8012CC660CD5C057465785D
:103130004574A5788574E578C574257985826679A6
:1031400045EA06258582A579C582E67945EA062500
:10315000C582257A0583667A45EA06250583A47A21
:10316000448303F10B0517464E5D44EA062444836D
:103170000D4403F10C0615F8014F94400832202A43
:1031800047EA0407F7D1351D2F44BD4209D20F335A
:103190007C1E0B440C4413F8012F03F8012C9C42B5
:1031A000F9D1CA19013D0D44002302F8013CC56163
:1031B000CB5D0384527843EA02230384B81CF0BD3C
:1031C000DE1C01F1030E6EE700487047F8A800000E
:1031D00000487047E8A600000023F0B406464C1EE5
:1031E0001D4614F8012F9A400833202B45EA0205AA
:1031F000F7D1281D042801F1030708D9EC1C3B4630
:103200000C4413F8012F03F8012C9C42F9D10D4412
:103210000023EB707760F0BC704700BF0048704738
:10322000F8A80000004870470CA700000023F0B485
:103230004D1E1C4615F8012F9A400833202B44EAF6
:103240000204F7D1261D042E01F1030708D9E51C5D
:103250003B460D4413F8012F03F8012C9D42F9D190
:103260000B190022DA7047608B5D0372601DF0BCA1
:10327000704700BF00487047B4A500000048704781
:1032800030A700000023F0B406464C1E1D4614F87B
:10329000012F9A400833202B45EA0205F7D1281D5B
:1032A000042801F1030708D9EC1C3B460C4413F831
:1032B000012F03F8012C9C42F9D10D440023EB703F
:1032C0007760F0BC704700BF00487047B4A50000AD
:1032D000004870470CA7000000207047002070478E
:1032E00000487047E4A800000048704754A7000059
:1032F0000B78F0B40371002306460C461D4614F803
:10330000012F9A400833202B45EA0205F7D1681DAA
:10331000052801F1040708D92C1D3B460C4413F87D
:10332000012F03F8012C9C42F9D10D4400232B718D
:10333000B760F0BC704700BF00487047E4A80000C9
:103340000048704778A70000032070470048704786
:10335000B4A500000048704730A700000320704764
:1033600000487047F8A8000000487047E8A6000031
:103370000320704700487047E4A8000000487047E9
:1033800054A70000032070470048704794A5000030
:1033900000487047A0A6000090F8F804704700BFEE
:1033A00070B5051D064609D000F5F274A54205D09A
:1033B000103C204604F0D6FEA542F9D1304670BD3F
:1033C00070B510F10805064609D000F5F474A54261
:1033D00005D0103C204604F0C5FEA542F9D1304688
:1033E00070BD00BFF0B5114A114B1068114ED3B03B
:1033F0000C460290029F12680192019AC3F82C2297
:10340000194603A807AD3760FEF7E8FB03A8294675
:1034100000234FF4967204F0D7FF03A804F0A2FE35
:103420000123A560237153B0F0BD00BF289BFF1F8F
:10343000C498FF1FBC98FF1F30B50D4B0D481A688C
:1034400083B001250192019C1B6800930A4B009AEE
:103450000460C3F82C220C460D20002183F8295269
:1034600003F0C8FA054B2571A36003B030BD00BF5F
:10347000289BFF1FBC98FF1FC498FF1F9CA700003C
:1034800030B50446D9B00D4601A8002104F0AAFECB
:10349000616801A804F006FF01A905A804F0B6FEC2
:1034A0000DAC05AA09A80B49FFF7B4FA2146002381
:1034B0004FF4967209A804F087FF09A804F052FEA1
:1034C00005A804F04FFE6C6001A804F04BFE59B053
:1034D00030BD00BFC498FF1F037970B50B7006465E
:1034E00080680D4606F0ACFC2A460446002324FA08
:1034F00003F10833202B02F8011FF8D1B168681DD1
:10350000224603F07FF8601D70BD00BF70B506460F
:1035100040680D4606F094FC6A1E0446002324FA17
:1035200003F10833202B02F8011FF8D17168281D20
:10353000224603F067F8201D70BD00BF70B5064637
:1035400040680D4606F07CFC6A1E0446002324FAFF
:1035500003F10833202B02F8011FF8D122467168CD
:10356000281D254403F04EF8337A2B71601D70BD81
:1035700070B5064640680D4606F062FC6A1E0446B9
:10358000002324FA03F10833202B02F8011FF8D19D
:103590007168281D224603F035F8201D70BD00BF5C
:1035A0002DE9F041054640680E4606F049FC721EC2
:1035B0000446002324FA03F10833202B02F8011FEC
:1035C000F8D122466968301D03F01CF8A86806F09F
:1035D00037FCE11C024631440434002322FA03F094
:1035E0000833202B01F8010FF8D104343019A968F1
:1035F000144403F007F8E86806F022FC3219074685
:10360000002327FA03F10833202B02F8011BF8D11D
:1036100004343A463019E96802F0F4FF3A192B7C79
:10362000B354B318697C5970A97C9970E97CD9703E
:10363000A98A1971A98A090A5971E98A9971E98ACD
:10364000090AD971298B1972298B090A5972698B58
:103650009972698B02F10B03090AF154E869F718B2
:1036600002F10C0406F0ECFB3A468046002328FAEF
:1036700003F10833202B02F8011FF8D1043430196C
:103680004246E96902F0BEFF08EB04002B8C33547C
:103690002B8C06441B0A73700230BDE8F08100BF1A
:1036A0002DE9F041054640680E4606F0C9FB721E42
:1036B0000446002324FA03F10833202B02F8011FEB
:1036C000F8D122466968301D02F09CFFA86806F018
:1036D000B7FBE21C074632440434002327FA03F107
:1036E0000833202B02F8011FF8D104343A46301970
:1036F000A96802F087FF3A192B7BB3542869B718E1
:10370000541C06F09DFB3A468046002328FA03F13C
:103710000833202B02F8011FF8D104344246301937
:10372000296902F06FFF08EB04022B7DB354B31834
:10373000697D5970A97D9970E97DD970298B1971BE
:10374000298B090A5971698B9971698B090AD97199
:10375000A98B1972A98B090A5972E98B9972E98BA5
:1037600002F10B03090AF154286AF71802F10C045C
:1037700006F066FB3A468046002328FA03F1083338
:10378000202B02F8011FF8D1043430194246296A6F
:1037900002F038FF08EB0400AB8C3354AB8C0644CA
:1037A0001B0A7370EB8CB370EB8C1B0AF37095F8EB
:1037B000283033710530BDE8F08100BF43682DE942
:1037C000F0470B7043681B0A4B70C3888B70C3793A
:1037D000CB704368002B00F085800A460025042644
:1037E000C36853F8253013711C0C1F0A1B0E94710B
:1037F0005771D37143680135AB42344602F104027C
:1038000006F10406ECD804F1080204F1050A04F1FB
:10381000060904F1070804F1090C04F10A0E04F189
:103820000B0517460C3403698B5503691B0A01F815
:103830000A30438A01F80930C37C01F80830036973
:10384000F3B101EB070E75460022836953F822306D
:103850000EF822301C0C1E0A1B0EAC706E70EB7042
:103860000369013293423C4605F1040507F1040760
:10387000EBD804F1050C04F1060EE51D3A460834B8
:10388000C3698B54C3691B0A01F80C30C38B01F860
:103890000E30C37F4B55C3690BB30F4680460026DD
:1038A000D8F8243053F8260006F0CAFAB1000546CD
:1038B0003A19002325FA03F00833202B02F8010BF4
:1038C000F8D1D8F824300434381959582A4602F06F
:1038D00099FED8F81C300136B3422C44E0D820467B
:1038E000BDE8F087082217460C240B254FF00A0E7E
:1038F0004FF0090C4FF007084FF006094FF0050A8A
:10390000042690E770B503790B70064680680D4673
:1039100006F096FA2A460446002324FA03F10833F7
:10392000202B02F8011FF8D1B168681D224602F071
:1039300069FE601D70BD00BFF8B583880B70838879
:103940001B0A4B70064680680D4606F079FA030E96
:10395000010A020C6B71A8702A71E97002460446D4
:10396000B168A81D02F04EFEF06806F069FA611D0C
:10397000024629440634002322FA03F00833202BA0
:1039800001F8010FF8D104342819F168144402F049
:1039900039FE306906F054FA2A190746002327FA3F
:1039A00003F10833202B02F8011BF8D10434281945
:1039B0003A46316902F026FE381973692B540544E2
:1039C000190A1A0C1B0E6970AA70EB700430F8BD4E
:1039D000084604F04FBA00BF04F062B92DE9F04F79
:1039E00043680C689C4283B005460E4600F2B380E3
:1039F0006C60002C00F0B88005F1080C33460027FD
:103A00004FF0040E9C795A79197993F80780E86889
:103A1000240444EA02220A4342EA0862AA60DCF86B
:103A2000002040F827206A680137BA42714603F146
:103A300004030EF1040EE5D801F1080847464B1DBA
:103A4000881DCA1D01F1090A01F10A0B01F10B09D8
:103A500001F10C04305CF35C16F80E1016F802E06D
:103A60002A69000440EA03230B4343EA0E639342AE
:103A700000F290802B613BB305F1140CF3194FF069
:103A8000000E9C785A78197893F80380A86924046A
:103A900044EA02220A4342EA08626A61DCF8002032
:103AA00040F82E202A690EF1010E72453C4603F1C2
:103AB000040307F10407E4D804F1050A04F1060B36
:103AC00004F10709B846083416F80B2016F80A0066
:103AD00016F8083016F80970E969120442EA002263
:103AE000134343EA07678F424ED8EF617FB3002745
:103AF000BC4605F1200E00231946301910F8012BA1
:103B00009A400833202B41EA0201F7D104F104085E
:103B10004144884509D2E31C33444246013213F83C
:103B2000010F03F8010C8A42F8D3721808F1FF382C
:103B300002F801CC06EB08032B626A6ADEF800305B
:103B400042F82730EB690137BB420C46D3D82046F8
:103B500003B0BDE8F08FA100C06805F087FD6C6080
:103B6000E860002C7FF448AF4FF0080847460C246B
:103B70004FF00B094FF00A0B4FF0090A07220620FD
:103B800005234FF0040E65E7B900686A05F06EFD85
:103B90006862AAE79900A869019305F067FD019B97
:103BA000A86167E72DE9F041684BDFF8A8811B6841
:103BB000674EAEB004460193019BC6F82C32012734
:103BC000414602A886F8287204F00CFB06A80021E2
:103BD00004F008FB0BA8002104F004FB002541467B
:103BE00012A88DF83C508DF83D508DF83E508DF860
:103BF0003F50ADF84050ADF84250ADF84450ADF8EC
:103C0000465004F0EFFA6168ADF8585002A8ADF8DC
:103C10005A50ADF85C508DF85E5004F043FBA1683B
:103C200006A804F03FFB237B21698DF828300BA800
:103C300004F038FB257D627DA37DE17D208B8DF82E
:103C40003C508DF83D20658BA28B8DF83E308DF871
:103C50003F10E38B216AADF8400012A8ADF8425046
:103C6000ADF84420ADF8463004F01CFBE28C94F82B
:103C70002830A58CADF85A2002A918A88DF85E301E
:103C8000ADF85C70ADF8585004F0C0FA06A91CA855
:103C900004F0BCFA9DF828308DF880300BA921A8DB
:103CA00004F0B4FA9DF83C209DF83D308DF8942046
:103CB0008DF895309DF83E209DF83F308DF8962088
:103CC0008DF89730BDF84020BDF84230ADF898200F
:103CD00012A9BDF84420ADF89A3028A8BDF84630A6
:103CE000ADF89C20ADF89E3004F090FABDF8583045
:103CF000BDF85C20BDF85A40ADF8B03018A99DF869
:103D00005E30ADF8B42030468DF8B630ADF8B24034
:103D1000FDF75EFC28A804F025FA21A804F022FA99
:103D20001CA804F01FFA18A804F01CFA12A804F04A
:103D300019FA0BA804F016FA06A804F013FA02A860
:103D400004F010FA2EB0BDE8F08100BF289BFF1FE1
:103D5000C498FF1FD8A700002DE9F043774EADF5BA
:103D60000F7D05460F4617A8314604F03BFA1BA805
:103D7000002104F037FA20A8002104F033FA0024CF
:103D8000314627A88DF890408DF891408DF89240EB
:103D90008DF89340ADF89440ADF89640ADF898405A
:103DA000ADF89A4004F01EFA214603A8ADF8AC40E5
:103DB000ADF8AE40ADF8B0408DF8B24004F012FA64
:103DC000214607A804F00EFAA96807A804F06AFAC9
:103DD000696803A804F066FAE9681BA804F062FAAF
:103DE000287C95F813C0B5F814E02A8B95F811904B
:103DF00095F81280EE8A6B8BE9698DF8900027A800
:103E00008DF893C0ADF894E0ADF89820ADF89660C9
:103E1000ADF89A308DF891908DF8928004F042FAC6
:103E20002B8CADF8AC3003A901230BA8ADF8B03052
:103E300004F0ECF917A92DA804F0E8F91BA931A8A2
:103E400004F0E4F99DF87C308DF8D43020A936A830
:103E500004F0DCF99DF890209DF891309DF89210C7
:103E60009DF89300BDF894E0BDF896608DF8E820C9
:103E70008DF8E930BDF89820BDF89A308DF8EA1039
:103E80008DF8EB0027A93DA8ADF8ECE00FADADF83B
:103E9000EE60ADF8F020ADF8F23004F0B7F9BDF8FF
:103EA000AC10BDF8AE60BDF8B0209DF8B230ADF8F2
:103EB0000411284607A9ADF80661ADF808218DF870
:103EC0000A3143AE04F0A2F92DAB0BAA13A800955A
:103ED0001B49FDF751FF234631464FF4967213A854
:103EE00004F072FA13A804F03DF9284604F03AF9F8
:103EF0003DA804F037F936A804F034F931A804F0ED
:103F000031F92DA804F02EF90BA804F02BF97E60EE
:103F100007A804F027F903A804F024F927A804F05F
:103F200021F920A804F01EF91BA804F01BF917A81A
:103F300004F018F90DF50F7DBDE8F083D8A7000057
:103F4000C498FF1F2DE9F043804600F11005036B74
:103F5000774E85B029460C309847D8F82840D8F8D5
:103F6000249023681B68B34275D1B9F1630F03DD58
:103F700094F8F834002B6BD098F8143084F823327E
:103F8000D8F8180005F05CFF04F223220546002350
:103F900025FA03F10833202B02F8011FF8D104F5AC
:103FA0000A77D8F818102A46384602F02BFB05F19C
:103FB000050E5FFA8EF3CEF307215A18D24384F828
:103FC0001E3284F82022FF23FE2284F81F12BEF145
:103FD000FF3F5FFA89F149F3072984F81C3284F81E
:103FE0001D2284F8211284F822920DDB05F227208D
:103FF000204404F22123002201E013F8011F834230
:104000000A44FAD1D343DBB204EB0E020EF1080EE0
:10401000BEF5007F82F8233224DCBEF1000F04F5E8
:10402000077615DD0C352E44424F04F21B2503E0C4
:1040300003F020FFAE420BD0626815F8011F136831
:104040001B68BB420846F3D010469847AE42F3D1F6
:1040500005B0BDE8F0832A4649462046984705B09A
:10406000BDE8F08303218DF8081022683248334BF5
:10407000019003931568B54254D10022382084F88A
:10408000231284F8240203F1300184F8252284F8F5
:10409000262284F827221D6858689A68DE68FE6028
:1040A00010338B423D607860BA6007F11007F2D19F
:1040B00019685B687B6039603D200022C223FF26BF
:1040C000FE25072184F81E0284F8203284F81C6241
:1040D00084F81D5284F81F2284F8222284F82112C9
:1040E00004F2212304F25F2001E013F8011F98423B
:1040F0000A44FAD1D2430F4F84F8602204F21B2500
:1041000004F5187603E003F0B5FEB542A0D062686E
:1041100015F8011F13681B68BB420846F3D0104610
:104120009847F2E7204601AA0721A84790E700BF79
:10413000CD480000D139000038A40000A0A700003D
:104140002DE9F0410023074684B00C304C1E1D467B
:1041500014F8012F9A400833202B45EA0205F7D1C5
:104160002E1D042E01F1030E08D9EC1C73460C44DD
:1041700013F8012F03F8012CA342F9D10D440023B9
:10418000EB70C7F810E08B5D3B7507F118067B6B91
:10419000704D31469847FC6AD7F8288023681B6821
:1041A000AB4268D1B8F1630F03DD94F8F834002B0B
:1041B0005ED0F86905F044FE04F222220646002390
:1041C00026FA03F10833202B02F8011FF8D1F96910
:1041D0003246371D04F2272002F014FAFBB2C7F36F
:1041E00007215A18D24384F82022FE2284F81E3276
:1041F00084F81F12FF235FFA88F184F81D2248F328
:1042000007287A1C84F81C3284F8211284F8228250
:104210000DDB06F22620204404F22123002201E0D7
:1042200013F8011F98420A44FAD1D343DBB2E219D2
:104230000837B7F5007F82F8233223DC002F04F51E
:10424000077315DD0B36444F1E4404F21B2503E0B3
:1042500003F010FEB5420BD0626815F8011F136819
:104260001B68BB420846F3D010469847B542F3D1CD
:1042700004B0BDE8F081324641462046984704B07C
:10428000BDE8F08103218DF8081022683348344BD3
:10429000019003931668AE4256D10022382084F86C
:1042A000231203F1300584F8240284F8252284F8CF
:1042B000262284F8272204F50A711E6858689A6835
:1042C000DF68CF601033AB420E6048608A6001F156
:1042D0001001F2D11F685B684B600F603D20002227
:1042E000C223FF26FE25072184F81E0284F820320F
:1042F00084F81C6284F81D5284F81F2284F822225C
:1043000084F8211204F2212304F25F2001E013F863
:10431000011F98420A44FAD1D2430F4F84F8602219
:1043200004F21B2504F5187603E003F0A3FDB54263
:104330009ED0626815F8011F13681B68BB420846CF
:10434000F3D010469847F2E7204601AA0721B0476C
:104350008EE700BFCD480000D139000038A400002E
:10436000A0A700002DE9F0410022074684B00C30E0
:104370004D1E134615F8014F94400832202A43EA97
:104380000403F7D103F1040EBEF1040F40F21581CE
:1043900001F1030CDE1C62468D1912F8014F02F880
:1043A000014CAA42F9D100228A5514460E44C7F89E
:1043B00010C016F8015FA5400834202C42EA05021F
:1043C000F7D10EF104063244964209D207330B446A
:1043D0003446013413F8015F03F8015C9442F8D3CA
:1043E000731E8E1800250B4406F8015C2C467B6179
:1043F0002B4616F8015BA5400834202C43EA050340
:10440000F7D1161D33449E4209D203320A44344682
:10441000013412F8015F02F8015C9C42F8D3CC1819
:10442000013E0E44002204F8012CBE61CD5C3D77B4
:1044300065787D77A578BD77E578FD7725793D842A
:10444000667945EA06253D84A5797D84E67945EAC5
:1044500006257D84257ABD84667A45EA0625BD84D5
:10446000A47AFC8403F10B0503F10C0E4E5D44EAC3
:104470000624FC840D44164615F8014F944008327A
:10448000202A46EA0406F7D10EF104052E44B5426F
:1044900009D20F33741E0B440C4413F8012F03F898
:1044A000012CA342F9D18A19013D0D44002302F8E1
:1044B000013CBD628B5DBB855278FC6C744D43EA58
:1044C000022307F13006BB853146A0477C6CD7F844
:1044D000408023681B68AB4268D1B8F1630F03DDED
:1044E00094F8F834002B5ED0786B05F0A9FC04F248
:1044F00022220646002326FA03F10833202B02F875
:10450000011FF8D1796B3246371D04F2272002F0E3
:1045100079F8FBB2C7F307215A18D24384F8202256
:10452000FE2284F81E3284F81F12FF235FFA88F1FE
:1045300084F81D2248F307287A1C84F81C3284F87A
:10454000211284F822820DDB06F22620204404F298
:104550002123002201E013F8011F98420A44FAD1F6
:10456000D343DBB2E2190837B7F5007F82F8233274
:1045700027DC002F04F5077315DD0B36454F1E446D
:1045800004F21B2503E003F075FCB5420BD0626812
:1045900015F8011F13681B68BB420846F3D010468C
:1045A0009847B542F3D104B0BDE8F08132464146A8
:1045B0002046984704B0BDE8F081DE1C01F1030CF1
:1045C000F1E603218DF8081022683348334B01903F
:1045D00003931668AE4256D10022382084F8231285
:1045E00003F1300584F8240284F8252284F8262279
:1045F00084F8272204F50A711E6858689A68DF68F3
:10460000CF601033AB420E6048608A6001F1100148
:10461000F2D11F685B684B600F603D200022C2230F
:10462000FF26FE25072184F81E0284F8203284F834
:104630001C6284F81D5284F81F2284F8222284F818
:10464000211204F2212304F25F2001E013F8011F7C
:1046500083420A44FAD1D2430E4F84F8602204F216
:104660001B2504F5187603E003F004FCB5429AD04C
:10467000626815F8011F13681B68BB420846F3D037
:1046800010469847F2E7204601AA0721B0478AE77B
:10469000CD480000D139000038A40000A0A70000D8
:1046A00000232DE9F0411A4604464E1E0C3016F840
:1046B000015F9D400833202B42EA0502F7D102F149
:1046C000040EBEF1040F40F2F98001F1030CD71C77
:1046D0006346CE1913F8015F03F8015CB342F9D1C8
:1046E0000023CB551D460F44C4F810C017F8016FC6
:1046F000AE400835202D43EA0603F7D10EF104073A
:104700003B449F4209D207320A443D46013512F824
:10471000016F02F8016C9D42F8D37A1ECF180A444B
:10472000002507F8015C6261CA5C227603F1010E84
:104730002A4617F8016FAE400835202D42EA0602DE
:10474000F7D10EF104073A44974209D20433561EBA
:104750000B440E4413F8015F03F8015CB342F9D136
:104760008D18013F0F44002305F8013CE7618E5C82
:1047700084F820606E7884F82160AE7884F8226036
:10478000EE7884F823602E79A6846F7946EA0726AE
:10479000A684AE79E684EF7946EA0726E6842E7A87
:1047A00026856F7A46EA07262685AD7A658502F169
:1047B0000B0602F10C0E8F5D45EA072565850E4458
:1047C0001F4616F8015F9D400833202B47EA050776
:1047D000F7D10EF104063744BE420AD202F10F03AC
:1047E0007D1E0B440D4413F8012F03F8012CAB423E
:1047F000F9D1CB19013E0E44002203F8012CE662E8
:10480000CA5D22865978656D42EA012222869A782D
:104810006286D97842EA012262861B7984F83430B4
:1048200004F138063146A847E56C264A2B68A16C8E
:104830001B6893423DD1632902DD95F8F834B3B388
:1048400041F3072094F83C2085F82322C3B253FAA1
:1048500081F31344FF26FE220124DB4385F8211255
:10486000002185F81C6285F81E42174F85F8220248
:1048700085F8243285F81D2285F8202285F81F123C
:1048800005F21B2405F5097603E003F0F3FAA642CE
:104890000BD06A6814F8011F13681B68BB420846F6
:1048A000F3D010469847A642F3D1BDE8F081BDE8A9
:1048B000F08132462846BDE8F0411847D71C01F187
:1048C000030C0DE7CD480000D13900002DE9F0417F
:1048D000632984B003DD90F8F874002F53D0136877
:1048E00005460F4610461B6805F223219847C2B2C1
:1048F000C0F30721561885F81E2247F30722F64316
:10490000FF234FF0FE0EFCB285F82222421C85F8F0
:10491000206285F81F1285F81C3285F81DE285F8A3
:1049200021420DDB00F22221294405F2212300223D
:1049300001E013F8014F99422244FAD1D343DBB28C
:104940002A1800F10807B7F5007F82F823321EDC31
:10495000002F05F5077616DD0730DFF810810644D5
:1049600005F21B2403E003F085FAB4420BD06A6819
:1049700014F8011F13681B6843450846F3D010461E
:104980009847B442F3D1384604B0BDE8F081344AC8
:104990000192344C2B68039403228DF808201B6885
:1049A00031498B4255D10023382185F8232204F167
:1049B000300E85F8241285F8253285F8263285F8E0
:1049C000273205F50A7627460FCF774530607160AC
:1049D000B260F3603C4606F11006F4D103CC00222D
:1049E0007160C2234FF0FF0EFE273D240721306087
:1049F00085F8203285F81CE285F81D7285F81E4284
:104A000085F81F2285F8222285F8211205F221233C
:104A100005F25F2001E013F8011F98420A44FAD121
:104A2000D243DFF8488085F8602205F21B2405F5A3
:104A3000187603E003F01EFAB4420ED06A6814F848
:104A4000011F13681B6843450846F3D0104698477A
:104A5000F2E7284601AA072198474FF0FF3093E775
:104A600038A40000A0A70000CD480000D139000004
:104A700000B5094A094B116883B001910198126889
:104A800000920749009A0860C3F82C221846FCF7E8
:104A9000F9FE03B05DF804FB289BFF1FC498FF1FBD
:104AA000BC98FF1F10B50B4B0B481A6882B00192DF
:104AB000019C1B680093094B009AC3F82C220460E8
:104AC0000C46FFF7D5FF064BA3600122227102B00E
:104AD00010BD00BF289BFF1FBC98FF1FC498FF1F7D
:104AE000DCA70000804A814B70B502F583619360BA
:104AF00000230846C2F8E434C2F8E834C2F8F034BF
:104B0000C2F8EC3402E00133192B0DD050F8044FF9
:104B1000002CF8D1764802EB830400F140057D3388
:104B2000C2648364C4F81C5472480023044602E043
:104B30000133192B0AD054F8045F002DF8D103F586
:104B400090756B4C42F82540643363606A4C0023D7
:104B500002E00133192B0DD054F8045F002DF8D179
:104B6000664C02EB830504F11C067D33A26263628E
:104B7000C5F81C645F4C002302E00133192B0AD0F6
:104B800054F8045F002DF8D103F590755B4C42F8A2
:104B9000254064336360584C002302E00133192B35
:104BA0000DD054F8045F002DF8D1554C02EB83056D
:104BB00004F11C067D33A2626362C5F81C644D4C8F
:104BC000002302E00133192B0AD054F8045F002DB2
:104BD000F8D103F590754A4C42F825406433636080
:104BE000454C002302E00133192B0DD054F8045F2B
:104BF000002DF8D1434C02EB830504F11C067D33F4
:104C0000A2626362C5F81C643A4C002302E00133DF
:104C1000192B0AD054F8045F002DF8D103F59075D4
:104C2000384C42F8254064336360334C002302E083
:104C30000133192B0DD054F8045F002DF8D1324CFC
:104C400002EB830504F138067D3362642364C5F802
:104C50001C64284C002302E00133192B0AD054F8BD
:104C6000045F002DF8D103F59075274C42F82540DC
:104C700064336360002302E00133192B0DD051F837
:104C8000044F002CF8D1214902EB830401F12005E7
:104C90007D33CA628B62C4F81C54002302E00133E6
:104CA000192B0AD050F8041F0029F8D103F5907091
:104CB000164942F8201064334B60154801F032FB6E
:104CC000134801F085FC124801F080FB01210D2002
:104CD00001F096FE0D20002101F08CFE4820BDE879
:104CE000704001F077BF00BF7890FF1F80841E00E6
:104CF0001896FF1FF494FF1F9094FF1F7096FF1FDC
:104D0000A496FF1FF49AFF1FC495FF1F4090FF1F3A
:104D1000AC95FF1F2DE9F04F8DB0D04AD04B0692D5
:104D20000022044600F5836600F27C45ADF81C20A5
:104D30000B92089309930A9356F8043F002B00F056
:104D4000D28058681F6801689A6808978B68ADF828
:104D50001C2098473368099058680368DB689847B7
:104D6000236831680A904FF400721B68D1F81080F4
:104D70000B92BC4A9342824640F0B581B8F1630F72
:104D800004DD94F8F834002B00F0AD80BDF81C3041
:104D9000DDF8209084F823321B0A84F82432484638
:104DA00005F04EF807463B0E3A0C000A494684F8D7
:104DB000283284F8257284F8260284F8272204F227
:104DC00029203A4601F01EFCDDF824B0584605F0D3
:104DD00037F804F22329791D024606374944002397
:104DE00022FA03F00833202B01F8010FF8D1043721
:104DF000594609EB0700174401F004FC504605F042
:104E00001FF809EB0702834600232BFA03F108334E
:104E1000202B02F8011BF8D10437514609EB07009B
:104E20005A4601F0EFFB0BEB070E0EF104075FFA99
:104E300087FAC7F3072C09EB0E010AEB0C000022DE
:104E4000C0434FF0020B09F80E20FF238A70CA708E
:104E500081F801B04FF0FE095FFA88F184F8200272
:104E600048F30728781C84F81EA284F81FC284F82F
:104E70001C3284F81D9284F8211284F82282C0F238
:104E80000A820EF22620204404F2212301E013F8C6
:104E9000011F98420A44FAD1D243D2B2E11907F174
:104EA0000803B3F5007F81F8232200F32481002B4F
:104EB00004F5077717DD0EF10B0EDFF8AC917744A0
:104EC00004F21B2803E002F0D5FF47450BD06268CF
:104ED00018F8011F13681B684B450846F3D01046AD
:104EE00098474745F3D1B5427FF426AFDFF8749178
:104EF00004F59C6855F8040F002800F0E3808168F1
:104F0000036842680891ADF81C209B6898472B689D
:104F100009901A681846D36898472B6821680A9048
:104F20001A680E6852684FF4007118460B9190474A
:104F30004E45074640F0CF80632804DD94F8F834EE
:104F4000002B00F0BF80BDF81C30089E84F823328F
:104F50001B0A84F82432304604F072FF82464FEA7E
:104F60001A634FEA1A42000A314684F8283284F85C
:104F700025A284F8260284F8272204F2292052462A
:104F800001F040FB09990191084604F059FF04F231
:104F900023260AF10502019983460AF1060A3244E2
:104FA00000232BFA03F00833202B02F8010FF8D16D
:104FB0000AF1040A5A4606EB0A0001F023FB0A999B
:104FC0000191084604F03CFFD3440199824606EB68
:104FD0000B0200232AFA03F00833202B02F8010BFE
:104FE000F8D10BF1040B06EB0B00524601F00AFB63
:104FF0000AEB0B020B9BB354111D16445FFA81FCA4
:10500000C1F3072E4FEA132B4FEA134A0CEB0E00A5
:105010001B0E86F801B086F802A0F370C043FEB202
:105020004FF0FF0B4FF0FE0A47F307274B1C84F8A5
:10503000200284F81EC284F81FE284F81CB284F8AF
:105040001DA284F8216284F8227218DB02F226275E
:10505000274404F2212300200AE000BF20A400001E
:10506000D8A70000CD480000D139000013F8016F27
:10507000BB423044FAD16FEA000B5FFA8BFB631836
:105080000831B1F5007F83F823B200F3A080002936
:1050900004F5077716DD0B32DFF820A2174404F27F
:1050A0001B2603E002F0E6FEBE420BD0626816F853
:1050B000011F13681B6853450846F3D010469847F4
:1050C000BE42F3D1A8457FF415AF012384F8F8342C
:1050D0000DB0BDE8F08F014606AA2046B047A845AE
:1050E0007FF408AFF1E7414606AA20469847B5424B
:1050F0007FF422AEFAE66E49039103226D492368DC
:1051000005918DF810201B686B498B4240F0CA80D6
:10511000684F84F823220023382207F1300884F8EE
:10512000242284F8253284F8263284F8273204F5C4
:105130000A7EBC46BCE80F00C445CEF80000CEF89D
:105140000410CEF80820CEF80C3067460EF1100E91
:10515000EFD103CF0022CEF80000CEF804103D209E
:10516000C2234FF0FF0CFE27072184F81E0284F8AB
:10517000203284F81CC284F81D7284F81F2284F83F
:10518000222284F8211204F2212304F25F2001E09C
:1051900013F8011F98420A44FAD1D243DFF81C9158
:1051A00084F8602204F21B2704F5187804E002F06A
:1051B00061FE47453FF497AE626817F8011F136818
:1051C0001B684B450846F2D010469847F1E738492E
:1051D000039103222368374905918DF810201B683D
:1051E0004B455AD1002384F8232238220E4601F180
:1051F000300C84F8242284F8253284F8263284F88E
:10520000273204F50A77B646BEE80F00E645386057
:105210007960BA60FB60764607F11007F3D103CEE0
:105220000022386079603D20C2234FF0FF0EFE2639
:10523000072184F81E0284F8203284F81CE284F8E6
:105240001D6284F81F2284F8222284F8211204F2BD
:10525000212304F25F2001E013F8011F98420A4461
:10526000FAD1D243DFF854A084F8602204F21B265E
:1052700004F5187704E002F0FDFDBE423FF422AFD2
:10528000626816F8011F13681B6853450846F2D080
:1052900010469847F1E71A4600E603AA0721204680
:1052A00098470FE703AA0721204698471BE600BF4F
:1052B00038A40000A0A70000CD480000D1390000AC
:1052C0002DE9F04FC74E93B033680693069DD0F892
:1052D000003542F6F822EB1A934284BF002380F88F
:1052E000F834D0F8E434044633B1D0F80435AB4296
:1052F0003CBF0023C0F8E434BB4FDFF8FCB2A26926
:1053000032B133680793079B5B1B9A42C0F024813C
:10531000606803685B69BB4266D102F0C1FC00288B
:1053200065DBD4F8F434D4F8E4240344072AC4F841
:10533000F43447D082B9FF2869D033680893089BBA
:1053400041F288315B1B8B42D9D984F8F8246FF085
:10535000010013B0BDE8F08F012A60D0022A00F0EE
:10536000BF80032A00F0C780042A00F0CE80052AFF
:1053700000F0DB80062A00F0E080082ABFD19B4ABB
:105380001A4000239A42C4F8E434C0F26081FF2A34
:10539000B5D1D4F8EC34002B00F092820A2B00F047
:1053A0005C82062B00F05C810B2B00F05581BC3336
:1053B00054F823000028A2D0036804F11C011B68E4
:1053C00098479CE7D4F8F034E2180133C4F8F0347D
:1053D0001077D4F8E834013BC4F8E834002B8ED1C0
:1053E0000823C4F8E4348AE79847002899DA94F847
:1053F000F8040028ADD0D4F8FC3440F6C412EB1AFF
:10540000934200F2AE80002013B0BDE8F08F01227D
:1054100005F11403C4F8E424C4F804356FE7FE284A
:105420007FD094F8F8240023C4F8E434002A7FF4F1
:1054300066AF6F4923680F911B686E4910928B42CB
:10544000119240F0FF80FF210820F7234FF0FE0E5D
:1054500084F81C120A2184F81E0284F8203284F891
:10546000232284F8242284F8252284F8262284F832
:10547000272284F8282284F8292284F82A2284F812
:105480001F2284F8222284F81DE284F8211204F2FB
:10549000212304F22A2001E013F8011F98420A4454
:1054A000FAD1D243DFF8549184F82B2204F21B285E
:1054B00004F22B2A03E002F0DDFCC2450BD0626847
:1054C00018F8011F13681B684B450846F3D01046B7
:1054D0009847C245F3D133680993099BE3600EE70F
:1054E00000220323C4F8E804C4F8F404C4F8F02448
:1054F000C4F8E43403E7D4F8E83403EB00200423D1
:10550000C4F8E804C4F8E434F9E6384A1A40002A3A
:10551000C0F28580FF2A0CBF05230023C4F8E434C1
:10552000EDE60223C4F8E434E9E60623C4F8EC040B
:10553000C4F8F404C4F8E434E1E6D4F8EC34D4F864
:10554000E82403EB00230721C4F8EC34C4F8E41486
:10555000002A3FF445AFD2E66FF0010013B0BDE87A
:10556000F08F234A23680F921B68224900228B4246
:105570001092119258D1FF210820F723FE2784F8BA
:105580001C120A2184F81E0284F8203284F8232297
:1055900084F8242284F8252284F8262284F82722FD
:1055A00084F8282284F8292284F82A2284F81F22E9
:1055B00084F8222284F81D7284F8211204F2212337
:1055C00004F22A2001E013F8011F98420A44FAD19C
:1055D000D243DFF8288084F82B2204F21B2704F240
:1055E0002B2911E0289BFF1FD9390000FF00008004
:1055F00008A40000CD48000040420F00D13900004F
:1056000002F038FCB94513D0626817F8011F13681F
:105610001B6843450846F3D010469847F2E7013A25
:1056200062F0FF02013275E70FAA0A21204698476F
:1056300033680B930B9BC4F8FC540020E36013B059
:10564000BDE8F08F0FAA0A212046984743E7013AA8
:1056500062F0FF0201329AE6002384F8F8344EE645
:10566000D4F81C90D4F81035994504F11C0807D9DA
:105670004FEA8901D4F8180503F0F8FFC4F81805BB
:10568000C4F81095B9F1000F00F0358104F2145CF4
:10569000424604214FF0000E937992F8059010795C
:1056A0001B0443EA092392F80790034343EA096382
:1056B000C4F81435D4F81835DCF8000043F82E008F
:1056C000D4F810350EF1010E7345084602F10402BC
:1056D00001F10401E0D8039100F10B0100F109028E
:1056E00000F10803029100F10C010192994600F1CA
:1056F000050E00F1060C00F1070A00F10A02049100
:1057000018F80C00039918F80EE018F801C018F802
:105710000AA0D4F81C15000440EA0E2040EA0C0C44
:105720004CEA0A6A8A450BD94FEA8A01D4F8240563
:105730000592039303F09AFF059A039BC4F824058E
:10574000C4F81CA5BAF1000F00F0D28004F5A46ED5
:1057500008EB09020021937892F801C010781B042D
:1057600043EA0C2392F803C0034343EA0C63C4F8F2
:105770002035D4F82435DEF8000043F82100D4F8B1
:105780001C3501318B42484602F1040209F104093B
:10579000E1D8421DC11D4B4601920291821D00F1CC
:1057A000080918F80200019A18F8033018F80210D6
:1057B000029A000418F802A0D4F8282540EA012132
:1057C0000B4343EA0A6A924507D94FEA8A01D4F8A3
:1057D000300503F04BFFC4F83005C4F828A5BAF132
:1057E000000F36D000218E4604F22C5000231A46BA
:1057F00008EB090A1AF801CB0CFA03FC0833202B3A
:1058000042EA0C02F6D109F1040C624494450BD231
:1058100009F103034344E14609F1010913F801AF1B
:1058200003F801AC9145F7D308EB02030CF1FF3C00
:1058300003F801ECC444D4F83035C4F82CC5D0F8D2
:1058400000C043F821C0D4F8283501318B4291467D
:10585000CCD8012384F8083551E533680C930C9BB0
:10586000E2682E48D4F820C031680E919A1AA0FB45
:1058700002E02B4BDDF83880E1694FF47A7E800935
:105880000EFB102263440BFB0232244BA3FB083CAB
:105890004FEA9C1C013908440EFB1C8321460BFB7C
:1058A0001323CCEB0002226104F1100041F8143FF5
:1058B00000F094FE33680D930D9BC4F800351EE58F
:1058C000226818490F91109311930A2113682046FA
:1058D0000FAA984733680A930A9BE3602046FFF7B4
:1058E00019FAC4F8FC54C4F800554FF0FF3030E505
:1058F000DDF8109055E70C2209210823049201914C
:105900000B220421029299460A224FF0070A4FF017
:10591000060C4FF0050E0391F2E600BFD34D621066
:1059200000CA9A3B08A400002DE9F04FC64EC74AB2
:105930003368116893B00593059B5B1A0A2B05D851
:10594000C348FCF7E1FF13B0BDE8F08F336806935E
:105950000699C04C33680793079FD4F8003511604F
:10596000FB1A42F6F822934284BF002384F8F834ED
:10597000D4F8E434B74A002B40F05D81DFF8E082D0
:10598000B44DA2692AB133680B930B9BDB1B9A427F
:10599000D6D3606803685B69434568D102F080F93B
:1059A000002867DBD4F8F434D4F8E424DFF8A4E268
:1059B0000344072AC4F8F43447D06AB9FF2800F03A
:1059C000AF8033680A930A9B41F28831DB1B8B421C
:1059D000D7D98EF8F824B3E7012A00F0A980022A6B
:1059E00000F0FD80032A00F00581042A00F00C81FC
:1059F000052A00F01881062A00F03681082AC0D155
:105A0000954A1A4000239A42C4F8E434C0F2478110
:105A1000FF2AB6D1D4F8EC34DFF83892002B00F02E
:105A200092820A2B00F04481062B00F076810B2B2A
:105A300000F03A81BC3355F823000028A1D0036858
:105A400009F11C011B6898479BE7D5F8F024D5F8AD
:105A5000E834A918013B01320877C5F8F024C5F8ED
:105A6000E834002B8DD10823C4F8E43489E7984743
:105A7000002897DA94F8F8347648002B3FF460AFAA
:105A8000D0F8FC3440F6C412FB1A93427FF658AFAC
:105A9000FF23FE21002280F81C3280F81D12F7231C
:105AA00008250A2180F8203280F8232280F8242259
:105AB00080F8252280F8262280F8272280F82822E4
:105AC00080F8292280F82A2280F81F2280F82222DA
:105AD00080F81E5280F8211200F2212300F22A20C1
